:020000040800F2
:10000000682B00208901000865070008D105000859
:10001000610700083D020008770F0008000000009B
:10002000000000000000000000000000DD0B0008E0
:100030004102000800000000C50A0008C90C0008C1
:10004000A3010008A3010008A3010008550B000844
:10005000A3010008A3010008A3010008450200084D
:10006000FD020008B5030008A3010008A301000871
:10007000A3010008A3010008A3010008A3010008D0
:10008000A3010008A3010008A3010008A3010008C0
:10009000A3010008A3010008A3010008A3010008B0
:1000A000A3010008A3010008A3010008A3010008A0
:1000B0002D0D0008A3010008A3010008A3010008FA
:1000C000A3010008A3010008A3010008A301000880
:1000D000A3010008A3010008A3010008A301000870
:1000E000A3010008A3010008A301000800F002F822
:1000F00000F03AF80AA090E8000C82448344AAF188
:100100000107DA4501D100F02FF8AFF2090EBAE885
:100110000F0013F0010F18BFFB1A43F0010318473B
:100120007816000098160000103A24BF78C878C1ED
:10013000FAD8520724BF30C830C144BF04680C60ED
:10014000704700000023002400250026103A28BF35
:1001500078C1FBD8520728BF30C148BF0B60704739
:100160001FB51FBD10B510BD00F031F81146FFF7E7
:10017000F7FF00F041FF00F04FF803B4FFF7F2FF84
:1001800003BC00F055F800000948804709480047C3
:10019000FEE7FEE7FEE7FEE7FEE7FEE7FEE7FEE737
:1001A000FEE7FEE704480549054A064B7047000094
:1001B000CD0C0008ED00000868050020682B002029
:1001C0006807002068070020704770477047754631
:1001D00000F028F8AE4605006946534620F00700B7
:1001E000854618B020B5FFF7DDFFBDE820404FF091
:1001F00000064FF000074FF000084FF0000B21F011
:100200000701AC46ACE8C009ACE8C009ACE8C009DD
:10021000ACE8C0098D4670470446AFF30080204625
:10022000FFF7ABFF0048704708050020704700004B
:1002300001491820ABBEFEE72600020000BFFEE722
:100240007047000010B5022000F016F900B910BD8B
:10025000142000F0B3FE0221274800F0ACF900287A
:1002600044D11021244800F0B1F92021224800F0A7
:10027000ADF94021204800F0A9F910211E4800F0F6
:10028000A3F902211C4800F096F908B900F0A2F980
:100290001021194800F09AF92021174800F094F92C
:1002A0000221154800F087F908B900F0A9F92021CA
:1002B000114800F08BF940210F4800F085F9022128
:1002C0000D4800F078F908B900F0B0F940210A486B
:1002D00000F07CF91021084800F076F9202106484A
:1002E00000F072F94021044800F06EF9022000F09D
:1002F000BDF800BFABE700000008014010B50420C6
:1003000000F0BAF800B910BD142000F057FE042127
:10031000274800F050F9002844D11021244800F06B
:1003200055F92021224800F051F94021204800F0E1
:100330004DF910211E4800F047F904211C4800F037
:100340003AF908B900F088F91021194800F03EF98F
:100350002021174800F038F90421154800F02BF946
:1003600008B900F08FF92021114800F02FF9402141
:100370000F4800F029F904210D4800F01CF908B9D4
:1003800000F096F940210A4800F020F910210848B1
:1003900000F01AF92021064800F016F9402104481F
:1003A00000F012F9042000F061F800BFABE7000094
:1003B0000008014010B5082000F05EF800B910BD3B
:1003C000142000F0FBFD0821274800F0F4F8002875
:1003D00044D11021244800F0F9F82021224800F0EF
:1003E000F5F84021204800F0F1F810211E4800F0F7
:1003F000EBF808211C4800F0DEF808B900F06EF9AF
:100400001021194800F0E2F82021174800F0DCF82C
:100410000821154800F0CFF808B900F075F920213F
:10042000114800F0D3F840210F4800F0CDF8082122
:100430000D4800F0C0F808B900F07CF940210A48E6
:1004400000F0C4F81021084800F0BEF8202106484A
:1004500000F0BAF84021044800F0B6F8082000F097
:1004600005F800BFABE70000000801400149086043
:100470007047000014040140014600200022074B91
:100480001B6803EA0102054B14331B680B4013B1D0
:100490000AB1012000E00020704700000004014084
:1004A0002DE9F0410246002500260020002300240B
:1004B000002791F803C00CF00F0591F803C00CF071
:1004C000100CBCF1000F03D091F802C04CEA0505F6
:1004D00091F800C0BCF1000F31D0146800202BE06F
:1004E0004FF0010C0CFA00F3B1F800C00CEA03065F
:1004F0009E4220D183004FF00F0C0CFA03F7BC434F
:1005000005FA03FC4CEA040491F803C0BCF1280F7F
:1005100006D14FF0010C0CFA00FCC2F814C00AE03E
:1005200091F803C0BCF1480F05D14FF0010C0CFA53
:1005300000FCC2F810C0401C0828D1D31460B1F8E8
:1005400000C0BCF1FF0F34DD546800202EE000F144
:10055000080C4FF0010808FA0CF3B1F800C00CEADF
:1005600003069E4221D183004FF00F0C0CFA03F7D3
:10057000BC4305FA03FC4CEA040491F803C0BCF147
:10058000280F05D100F1080C08FA0CF8C2F8148005
:1005900091F803C0BCF1480F07D100F1080C4FF0EF
:1005A000010808FA0CF8C2F81080401C0828CED3C5
:1005B0005460BDE8F0810246002093680B400BB107
:1005C000012000E0002070474161704701617047E1
:1005D00000BFFEE710B50848006828B1064B9968CF
:1005E00058681A68904700E000BF04480068401C43
:1005F0000249086010BD000020040020A40400206F
:1006000010B50848C06828B1064B59691869DA68FE
:10061000904700E000BF04484068401C0249486021
:1006200010BD000020040020A404002010B50848DC
:10063000806928B1064B196AD8699A69904700E029
:1006400000BF04488068401C0249886010BD00005B
:1006500020040020A404002010B50848406A28B1F6
:10066000064BD96A986A5A6A904700E000BF04486E
:10067000C068401C0249C86010BD00002004002072
:10068000A404002010B50848006B28B1064B996BF4
:10069000586B1A6B904700E000BF04480069401C8B
:1006A0000249086110BD000020040020A4040020BD
:1006B00010B50848C06B28B1064B596C186CDA6B42
:1006C000904700E000BF04484069401C024948616F
:1006D00010BD000020040020A404002010B508482C
:1006E000806C28B1064B196DD86C9A6C904700E06D
:1006F00000BF04488069401C0249886110BD0000A9
:1007000020040020A404002010B50848406D28B142
:10071000064BD96D986D5A6D904700E000BF0448B4
:10072000C069401C0249C86110BD000020040020BF
:10073000A404002010B50848006E28B1064B996E3D
:10074000586E1A6E904700E000BF0448006A401CD3
:100750000249086210BD000020040020A40400200B
:1007600000BFFEE77047000002490143024A1160E2
:10077000704700000000FA050CED00E010B500B96C
:1007800010BD03685B6984882343046863610022A9
:100790001DE0CB1133B183681B69848923438468CE
:1007A000236105E083685B6984892343846863610E
:1007B00003681B69848823430468236103685B69B9
:1007C00084882343046863614B06190E521C082A6F
:1007D000DFDB03681B6984882343046823610368A3
:1007E0005B69848823430468636100BFC8E730B550
:1007F00004460D4604B930BD204600F031F9782199
:100800002046FFF7BBFF00212046FFF7B7FF294630
:100810002046FFF7B3FF204600F03EF900BFEAE7AD
:1008200038B5044604B938BD864A2168914201D1E1
:10083000042100E00021844B22689A4201D1082261
:1008400000E000221143814B22689A4201D110221C
:1008500000E0002211437E4B22689A4201D12022FF
:1008600000E0002211437B4B22689A4201D14022D2
:1008700000E000221143784B22689A4201D1802285
:1008800000E000221143754B22689A4201D1921573
:1008900000E0002241EA0200012100F015F9694A56
:1008A000A168914201D1042100E00021664BA268B9
:1008B0009A4201D1082200E000221143634BA26852
:1008C0009A4201D1102200E000221143604BA2683D
:1008D0009A4201D1202200E0002211435D4BA26820
:1008E0009A4201D1402200E0002211435A4BA268F3
:1008F0009A4201D1802200E000221143574BA268A6
:100900009A4201D1921500E0002241EA0200012141
:1009100000F0DAF810208DF80300A088ADF8000090
:1009200003208DF8020069462068FFF7B9FDA18811
:100930002068FFF74BFE10208DF80300A089ADF86A
:10094000000003208DF802006946A068FFF7A8FDAB
:10095000A189A068FFF73AFEC82000F02FFB2E21E6
:100960002046FFF744FFAE212046FFF740FF00215D
:100970002046FFF73CFF10212046FFF738FF4021BB
:100980002046FFF734FFB0212046FFF730FF8121DA
:100990002046FFF72CFFFF212046FFF728FFA1216B
:1009A0002046FFF724FFA6212046FFF720FFA821BD
:1009B0002046FFF71CFF3F212046FFF718FFC82104
:1009C0002046FFF714FFD3212046FFF710FF002138
:1009D0002046FFF70CFFD5212046FFF708FFF02146
:1009E0002046FFF704FFD8212046FFF700FF05212E
:1009F0002046FFF7FCFED9212046FFF7F8FEF12143
:100A00002046FFF7F4FEDA212046FFF7F0FE122120
:100A10002046FFF7ECFEDB212046FFF7E8FE302101
:100A20002046FFF7E4FE8D212046FFF7E0FE14216B
:100A30002046FFF7DCFEAF212046FFF7D8FE00BFBF
:100A4000F1E6000000080140000C014000100140E8
:100A50000014014000180140001C0140002001402A
:100A600000B9704701680969828811430268116101
:100A700081680969828911438268116181684969C5
:100A800082891143826851610168496982881143F2
:100A90000268516100BFE4E700B970470168096965
:100AA0008288114302681161816849698289114312
:100AB0008268516181680969828911438268116184
:100AC00000BFEAE77047000029B1064A9269024375
:100AD000044B9A6104E0034A92698243014B9A6194
:100AE000704700000010024010B50848006828B1A7
:100AF000064B996858681A68904700E000BF0348A1
:100B00004068401C0249086010BD00008C040020B1
:100B10000800002010B50021022000F037F810BDB9
:100B2000024909888143014A118070470428004026
:100B300001460020064A12880A40D0B2044A121F19
:100B400012880A4012B108B1012000E0002070476D
:100B50000428004010B50120FFF7EAFF20B1012072
:100B6000FFF7DEFF00F022F80220FFF7E1FF30B1CF
:100B7000FFF7D0FF0220FFF7D3FFFFF7B5FF0420F8
:100B8000FFF7CEFF00F020F810BD000029B1064AA3
:100B900012880243044B1A8004E0034A12888243FD
:100BA000014B1A80704700000028004010B505482E
:100BB000006828B1034B996858681A68904700E0AC
:100BC00000BF10BD9804002000BF0348008800F05B
:100BD00020000028F9D0704704280040704710B565
:100BE00000F002F810BD00000CB50020019000904C
:100BF0003348006840F480303149086000BF304815
:100C0000006800F4003000900198401C01900098AA
:100C100018B90198B0F5A06FF1D12948006800F427
:100C2000003010B10120009001E0002000900098F9
:100C3000012843D12348006840F010002149086092
:100C40000846006820F0030008600846006840F08D
:100C5000020008601A484068194948600846406820
:100C600048600846406840F4806048600846406834
:100C700020F47C1048600846406840F4E810486062
:100C80000846006840F08070086000BF0C480068AB
:100C900000F000700028F9D00948406820F00300F7
:100CA000074948600846406840F00200486000BFBD
:100CB0000348406800F00C000828F9D10CBD000082
:100CC00000100240002002407047000010B5134899
:100CD000006840F00100114908600846406810496A
:100CE00008400E494860084600680E4908400B4914
:100CF00008600846006820F48020086008464068C4
:100D000020F4FE0048604FF41F008860FFF767FF83
:100D10004FF000600449086010BD00000010024060
:100D20000000FFF8FFFFF6FE08ED00E02DE9F04FB0
:100D300089B00121880700F007F910B909B0BDE8B2
:100D4000F08F6E48808928B16C488089401E6B49BD
:100D50008881CCE069484068007868B900214FF08C
:100D6000804000F0D8F80021654800F0D4F8402118
:100D7000634800F0DCF8BAE06048406890F8008012
:100D80005E48406890F801900A2098FBF0F100FB63
:100D90001180C6B20A2098FBF0F00A2190FBF1F214
:100DA00001FB1200C0B20890642098FBF0F0C0B2C2
:100DB00007900A2099FBF0F100FB1190514911F8BE
:100DC00000B00A2099FBF0F00A2190FBF1F201FB40
:100DD0001200C0B20690642099FBF0F0C0B20590FA
:100DE0004648008990FBFBF0C4B2701E4649095C7E
:100DF000079801444148103050F821000490DEB3B8
:100E00000898012804D002280AD0032807D108E056
:100E10004FF08141049800F011FB049008E000BFFE
:100E200006E04FF08141049800F0CAFB049000BF37
:100E300000BF049800F0D6FA02460B46CDE9000147
:100E40000020324900F0F4F8CDE9020100F048FA40
:100E500087B200212A4800F08CF807EBD7704010C9
:100E6000401E81B22648039700F081F8781E81B2B7
:100E7000234800F07AF800BF0598012805D12046E4
:100E800004EBD07104EB6101CCB20698012815D0B7
:100E9000069868B9BBF1040F04DC1848807A201A60
:100EA000C5B20CE0A000052190FBF1F0C5B206E050
:100EB000204604EBD071C1F3470500E0254606B992
:100EC0000025601B00F0FF0A0C484068801C0B499D
:100ED00048601EB10846808928448881BAF1000F15
:100EE00004D00648808950440449888100BF01210C
:100EF000880700F00DF800BF20E70000C8040020BC
:100F0000000400408F1700088817000880842E41D5
:100F1000CA430282704721B1028842F00102028076
:100F200004E002884FF6FE731A40028070470A46BA
:100F30000021018B48F6FF7319404FF6FF7303EA57
:100F4000022319430183704730B502460020002375
:100F50000024158A05EA0103958905EA010413B105
:100F60000CB1012000E0002030BD81857047018771
:100F700070478184704700BFFEE700004FF0E0211A
:100F8000096921F004014FF0E0221161C21700EB62
:100F90005272C2F3C702074B1A701946097801EB67
:100FA0004102C2EBC1114FF6FF7202EAC101024ACF
:100FB000118070470C0000200E00002001460D4AF1
:100FC00012884A434FF0E0235A6100229A610122BD
:100FD0001A6100BF4FF0E022106900F001021AB15F
:100FE00000F48032002AF5D000224FF0E0231A618D
:100FF0009A6170470E0000204FF4A060FFF7B4FB29
:101000004820FFF7BBFF0748074908604014888065
:1010100006488860001588810846FFF701FC00BF7C
:10102000FEE700000010014010000020000C01400D
:101030002DE9C04130B4DFF8A0C23CEA111418BF5A
:101040003CEA131400F0EC8081EA03051CEA111459
:1010500044EAD57418BF1CEA131500F0C780A4EB4E
:1010600005044FF0004545EAC12145EAC32341EAA2
:10107000505143EA525304F17F74994204F500340D
:101080004FEAC0204FEAC22208BF904200F09C8085
:101090004FEA13650FF24016765D4FEA134506FBE3
:1010A00005F7C7F1807706FB07F74FEAD737A7FBAD
:1010B00003687642C8F58038A7FB06CE38BFA8F192
:1010C000010807FB08E64FF0000EA6FB028CE6FBCA
:1010D00003CEDCF1000CCEF1004E38BFAEF1010EB4
:1010E000A6FB0C584FF000074FF00005E6FB0E87FB
:1010F000A1FB08C6A0FB07CE16EB0E0645F10005C6
:10110000E1FB076515F1E04E7EBFA4F580345FEA90
:1011100046066D4116F1800745F100054FEA172795
:101120004FEA066647EA0567A6F1DE46B6F1805F3C
:101130004FEA15251FD9384624F0010C05EBC47180
:10114000BCF1FE6F01EB0C1102D8F0BCBDE80081D0
:1011500024425CBF01F5801E9EEAC47F02D4F0BC2D
:10116000BDE80081244238D4F0BCA1F1C041BDE803
:10117000004100F030B94FEAD22242EA43524FEA2E
:10118000D323A7FB02864FEAD02040EA415007FB59
:1011900003661EEA0E0F4FEAD12105FB026658BF17
:1011A000A6EB0056B6EB00564FEA520E4EEAC37E4F
:1011B00018EB0E0E56EB530EBDD518EB02085E4130
:1011C0007F1C55F10005B6E74FF480154FF000077E
:1011D0004FF000064FF00008ADE7F0BC4FF0000004
:1011E00001F1C04101F00041BDE8008111EA0C1F8E
:1011F0000CEA131500D00CE013EA0C1F00F0258058
:101200004FF00000F0BC81EA030101F00041BDE8AD
:101210000081F0BCBDE8004181EA030100F0DBB8C9
:10122000F0BCBDE8004170B500F087F8097EFC3ED7
:1012300000F007B881EA03014FF0000001F000411F
:10124000704781EA030100F0C6B8F0BCBDE8004178
:101250004FF0000021497047FFFDFBF9F7F5F4F26C
:10126000F0EEEDEBE9E8E6E4E3E1E0DEDDDBDAD841
:10127000D7D5D4D3D1D0CFCDCCCBCAC8C7C6C5C49F
:10128000C2C1C0BFBEBDBCBBBAB9B8B7B6B5B4B3B6
:10129000B2B1B0AFAEADACABAAA9A8A8A7A6A5A4A1
:1012A000A3A3A2A1A09F9F9E9D9C9C9B9A99999865
:1012B0009797969595949393929191908F8F8E8E08
:1012C0008D8C8C8B8B8A8989888887878685858495
:1012D00084838382828181800000FF070000F87F81
:1012E0004FEA1153A3F58063D3F11E03A8BFD3F1D6
:1012F000200C08DB4FF0004242EAC12252EA505271
:1013000032FA03F0704709420BD4102BC4BF0020FF
:10131000704703F5787CBCF1FF3F05D04FF0FF30FC
:1013200070474FF00000704770B500F006F800BF3E
:101330004992248000207047F0E70EF1020E2EF053
:10134000030E5EF8046B364205D4012A43EB030515
:1013500015F5001F12D8012841EB010C1CF5001FE8
:101360000CD80ED14FEAD17C15F5001F0CEB4C0CBC
:101370000CF1020C08BF4CEBD37C04E04FF0080CDE
:1013800001E04FEAD37C0CEB4C0526FA05F606F09B
:101390000706B6F1040C06D20EEB860CBDE87040D1
:1013A0004CF0010C6047DFE80CF0090B02024FF033
:1013B00000414FF00000A1F5002170BD1946104614
:1013C000012851EB010418BFD4F5001484BF00209C
:1013D00001F0004170BD0808A0F500114FEA31018D
:1013E0007047000043004FEAD30C4FEA3C0C4340E7
:1013F0001FBF40070CF1605113F0FE4F70471CF007
:10140000006F03D100200CF0004170470CF0004346
:1014100043EA507010B540EACC0000F052F900BF2A
:10142000000000924FEA0001FFF7D5BF4FF00041E6
:101430004FF00000A1F50021704700004FF47F0C31
:101440001CEAD0121EBF1CEAD11392EA0C0F93EAD9
:101450000C0F00F0858090EA010F48BF42F48072C3
:1014600040F4000C41F400002CF07F4120F07F405C
:1014700000B58142A2EB03020FF2081CACEB504E08
:10148000C0F100009EF800E04FEA4E0E00FB0EFC9B
:1014900038BF49004FEA2C1C02F5FA020CFB0EF390
:1014A0004FEACE1E4FEA112C4FEAC1210EEB635ECC
:1014B00042EB22420EFB0CFC4FEA1C5300FB0311D3
:1014C0004FEA112C4FEA01310EFB0CFC4FEADC4CC9
:1014D00000FB0C11C14228BF09184CEB03335DF827
:1014E00004EB10EB410143EBC250B2F57C0F38BF67
:1014F000704729D512F0F00F1CBF00F1C04000F07A
:1015000000407047008182838485868788898B8C20
:101510008D8E8F919293959697999A9C9D9FA0A25C
:10152000A3A5A7A8AAACAEB0B2B3B5B7B9BCBEC0AC
:10153000C2C5C7C9CCCED1D4D7D9DCDFE2E6E9EC4D
:10154000F0F3F7FAFE0000004FEA400C0CF1807C4B
:10155000BCF17E4F28BF7047B0F1C04000F0F7B833
:1015600090EA010F0CEAD11348BF42F48072624541
:1015700038BF634507D213F47F0F16D080EA01000D
:1015800000F00040704710B500F09BF8097EFC3E6B
:1015900000F005B880EA010000F00040704780EAE2
:1015A000010000F0004000F0D2B812F47F0F04BF39
:1015B0000248704780EA010000F0C9B80000C07F0F
:1015C0004FF47F0C1CEAD0121EBF1CEAD11392EA22
:1015D0000C0F93EA0C0F00F0478090EA010F48BF10
:1015E00042F480724FF0004C4CEA00204CEA01219A
:1015F00002EB0302A0FB0113A2F50002002918BFB1
:1016000043F001035B0028BF4FEA330342EB224261
:101610005FEA132C4CEBC2502EBFBCEB436FB2F50C
:101620007C0F70474FEA036CBCF1004F08BF20F0FD
:101630000100B2F57C0F38BF70470BD582F0FF0276
:1016400012F5803FC8BF704700F1C040D8BF00F01E
:101650000040704700F5000C5FEA4C0C48BF704733
:10166000B0F1C04000F073B890EA010F0CEAD1135A
:1016700048BF42F48072624538BF634504D280EAB5
:10168000010000F00040704710B500F01AF800BFEC
:101690008900013E00F007B800F009B85FEA410C8C
:1016A0005FEA1C6C08D080EA010000F050B85FEAE5
:1016B000400C5FEA1C6CF6D14FF00040A0F58000B2
:1016C00070470EF1020E2EF0030E5EF8044B24421A
:1016D00004D44FEA4102B2F17F4F11D84FEA4003E0
:1016E000B3F17F4F0CD80ED14FEAD07CB2F17F4FCF
:1016F0000CEB4C0C0CF1020C08BF4CEBD17C04E061
:101700004FF0080C01E04FEAD17C0CEB4C0324FABB
:1017100003F404F00704B4F1040C06D20EEB840CBD
:10172000BDE810404CF0010C6047DFE80CF0070802
:1017300002024FF00040A0F5800010BD08464200B4
:1017400018BFD2F1807288BF00F0004010BDFF21A9
:1017500041EAD050C0057047A4D082430A978A431B
:101760007BD49243A4909B43A4D0A443719DAE43E9
:10177000B8FEB8430000C44366A6CF430000DC4374
:101780007B14E943A4F0F6430002040507090B01AA
:101790000204081020400000B817000800000020D4
:1017A0001000000028010008C817000810000020E1
:1017B000582B000044010008000000000000000059
:0817C000000000000000000021
:04000005080000ED02
:00000001FF
